{
  "address": "0xF269B2c4AB5a85cF881189843cdB88d93E21Ec63",
  "abi": [
    {
      "inputs": [
        {
          "internalType": "address",
          "name": "tokenAddress",
          "type": "address"
        },
        {
          "internalType": "address",
          "name": "priceFeed",
          "type": "address"
        }
      ],
      "stateMutability": "nonpayable",
      "type": "constructor"
    },
    {
      "inputs": [],
      "name": "FundMe__NotOwner",
      "type": "error"
    },
    {
      "anonymous": false,
      "inputs": [
        {
          "indexed": true,
          "internalType": "address",
          "name": "to",
          "type": "address"
        },
        {
          "indexed": false,
          "internalType": "uint256",
          "name": "amount",
          "type": "uint256"
        }
      ],
      "name": "TokenMinted",
      "type": "event"
    },
    {
      "inputs": [],
      "name": "MINIMUM_USD",
      "outputs": [
        {
          "internalType": "uint256",
          "name": "",
          "type": "uint256"
        }
      ],
      "stateMutability": "view",
      "type": "function"
    },
    {
      "inputs": [
        {
          "internalType": "address",
          "name": "fundingAddress",
          "type": "address"
        }
      ],
      "name": "getAddressToAmountFunded",
      "outputs": [
        {
          "internalType": "uint256",
          "name": "",
          "type": "uint256"
        }
      ],
      "stateMutability": "view",
      "type": "function"
    },
    {
      "inputs": [
        {
          "internalType": "uint256",
          "name": "index",
          "type": "uint256"
        }
      ],
      "name": "getFunder",
      "outputs": [
        {
          "internalType": "address",
          "name": "",
          "type": "address"
        }
      ],
      "stateMutability": "view",
      "type": "function"
    },
    {
      "inputs": [],
      "name": "getOwner",
      "outputs": [
        {
          "internalType": "address",
          "name": "",
          "type": "address"
        }
      ],
      "stateMutability": "view",
      "type": "function"
    },
    {
      "inputs": [],
      "name": "getPriceFeed",
      "outputs": [
        {
          "internalType": "contract AggregatorV3Interface",
          "name": "",
          "type": "address"
        }
      ],
      "stateMutability": "view",
      "type": "function"
    },
    {
      "inputs": [],
      "name": "getVersion",
      "outputs": [
        {
          "internalType": "uint256",
          "name": "",
          "type": "uint256"
        }
      ],
      "stateMutability": "view",
      "type": "function"
    },
    {
      "inputs": [],
      "name": "incrementWithFund",
      "outputs": [],
      "stateMutability": "payable",
      "type": "function"
    },
    {
      "inputs": [],
      "name": "myToken",
      "outputs": [
        {
          "internalType": "contract IMyToken",
          "name": "",
          "type": "address"
        }
      ],
      "stateMutability": "view",
      "type": "function"
    },
    {
      "inputs": [],
      "name": "number",
      "outputs": [
        {
          "internalType": "uint256",
          "name": "",
          "type": "uint256"
        }
      ],
      "stateMutability": "view",
      "type": "function"
    },
    {
      "inputs": [
        {
          "internalType": "uint256",
          "name": "newNumber",
          "type": "uint256"
        }
      ],
      "name": "setNumber",
      "outputs": [],
      "stateMutability": "nonpayable",
      "type": "function"
    },
    {
      "inputs": [],
      "name": "withdraw",
      "outputs": [],
      "stateMutability": "nonpayable",
      "type": "function"
    }
  ],
  "transactionHash": "0x17e378e39113fac735d3358c995061a8b14e8b10b63f4a7b6130b678b8c99c91",
  "args": [
    "0xF043804E445B8991a549D06b980eeCBD20005Cc0",
    "0xBaA0AfA2f390349e0074bE787509a098e3044fc8"
  ],
  "numDeployments": 2,
  "solcInputHash": "2bab02676282b9027eb47cebf76ad027",
  "bytecode": "0x60a060405234801561001057600080fd5b506040516109d03803806109d083398101604081905261002f91610080565b33608052600380546001600160a01b039384166001600160a01b031991821617909155600480549290931691161790556100b3565b80516001600160a01b038116811461007b57600080fd5b919050565b6000806040838503121561009357600080fd5b61009c83610064565b91506100aa60208401610064565b90509250929050565b6080516108f46100dc600039600081816101760152818161029d01526103b401526108f46000f3fe60806040526004361061009c5760003560e01c80638381f58a116100645780638381f58a14610151578063893d20e8146101675780639e87a5cd146101ae578063a62f7552146101cc578063b8fcf937146101d4578063d7b4750c146101f457600080fd5b80630343fb25146100a15780630d8e6e2c146100ea5780633ccfd60b146100ff5780633fb5c1cb146101165780636b69a59214610136575b600080fd5b3480156100ad57600080fd5b506100d76100bc366004610733565b6001600160a01b031660009081526002602052604090205490565b6040519081526020015b60405180910390f35b3480156100f657600080fd5b506100d7610214565b34801561010b57600080fd5b50610114610292565b005b34801561012257600080fd5b5061011461013136600461075c565b600055565b34801561014257600080fd5b506100d766b1a2bc2ec5000081565b34801561015d57600080fd5b506100d760005481565b34801561017357600080fd5b507f00000000000000000000000000000000000000000000000000000000000000005b6040516001600160a01b0390911681526020016100e1565b3480156101ba57600080fd5b506004546001600160a01b0316610196565b610114610434565b3480156101e057600080fd5b50600354610196906001600160a01b031681565b34801561020057600080fd5b5061019661020f36600461075c565b6105ce565b6000600460009054906101000a90046001600160a01b03166001600160a01b03166354fd4d506040518163ffffffff1660e01b8152600401602060405180830381865afa158015610269573d6000803e3d6000fd5b505050506040513d601f19601f8201168201806040525081019061028d9190610775565b905090565b336001600160a01b037f000000000000000000000000000000000000000000000000000000000000000016146102db5760405163579610db60e01b815260040160405180910390fd5b6000600180548060200260200160405190810160405280929190818152602001828054801561033357602002820191906000526020600020905b81546001600160a01b03168152600190910190602001808311610315575b5050505050905060005b815181101561039157600082828151811061035a5761035a61078e565b6020908102919091018101516001600160a01b03166000908152600290915260408120555080610389816107ba565b91505061033d565b5060408051600081526020810191829052516103af916001916106b9565b5060007f00000000000000000000000000000000000000000000000000000000000000006001600160a01b03164760405160006040518083038185875af1925050503d806000811461041d576040519150601f19603f3d011682016040523d82523d6000602084013e610422565b606091505b505090508061043057600080fd5b5050565b60045466b1a2bc2ec50000906104549034906001600160a01b03166105fe565b10156104a65760405162461bcd60e51b815260206004820152601b60248201527f596f75206e65656420746f207370656e64206d6f726520455448210000000000604482015260640160405180910390fd5b6000805490806104b5836107ba565b909155505033600090815260026020526040812080543492906104d99084906107d3565b90915550506001805480820182556000919091527fb10e2d527612073b26eecdfd717e6a320cf44b4afac2b0732d9fcbe2b7fa0cf60180546001600160a01b031916339081179091556003546040516340c10f1960e01b8152600481019290925268056bc75e2d6310000060248301526001600160a01b0316906340c10f1990604401600060405180830381600087803b15801561057657600080fd5b505af115801561058a573d6000803e3d6000fd5b505060405168056bc75e2d6310000081523392507fb9144c96c86541f6fa89c9f2f02495cccf4b08cd6643e26d34ee00aa586558a8915060200160405180910390a2565b6000600182815481106105e3576105e361078e565b6000918252602090912001546001600160a01b031692915050565b60008061060a83610636565b90506000670de0b6b3a764000061062186846107e6565b61062b91906107fd565b925050505b92915050565b600080826001600160a01b031663feaf968c6040518163ffffffff1660e01b815260040160a060405180830381865afa158015610677573d6000803e3d6000fd5b505050506040513d601f19601f8201168201806040525081019061069b919061083e565b505050915050806402540be4006106b2919061088e565b9392505050565b82805482825590600052602060002090810192821561070e579160200282015b8281111561070e57825182546001600160a01b0319166001600160a01b039091161782556020909201916001909101906106d9565b5061071a92915061071e565b5090565b5b8082111561071a576000815560010161071f565b60006020828403121561074557600080fd5b81356001600160a01b03811681146106b257600080fd5b60006020828403121561076e57600080fd5b5035919050565b60006020828403121561078757600080fd5b5051919050565b634e487b7160e01b600052603260045260246000fd5b634e487b7160e01b600052601160045260246000fd5b6000600182016107cc576107cc6107a4565b5060010190565b80820180821115610630576106306107a4565b8082028115828204841417610630576106306107a4565b60008261081a57634e487b7160e01b600052601260045260246000fd5b500490565b805169ffffffffffffffffffff8116811461083957600080fd5b919050565b600080600080600060a0868803121561085657600080fd5b61085f8661081f565b94506020860151935060408601519250606086015191506108826080870161081f565b90509295509295909350565b80820260008212600160ff1b841416156108aa576108aa6107a4565b8181058314821517610630576106306107a456fea264697066735822122077d873e8fa4faf665a56ec5f128ee02121111fdbce4ade4f36f9c3e50164bfa364736f6c63430008140033",
  "devdoc": {
    "kind": "dev",
    "methods": {},
    "version": 1
  },
  "userdoc": {
    "kind": "user",
    "methods": {},
    "version": 1
  },
  "storageLayout": {
    "storage": [
      {
        "astId": 75,
        "contract": "contracts/Counter.sol:Counter",
        "label": "number",
        "offset": 0,
        "slot": "0",
        "type": "t_uint256"
      },
      {
        "astId": 78,
        "contract": "contracts/Counter.sol:Counter",
        "label": "s_funders",
        "offset": 0,
        "slot": "1",
        "type": "t_array(t_address)dyn_storage"
      },
      {
        "astId": 82,
        "contract": "contracts/Counter.sol:Counter",
        "label": "s_addressToAmountFunded",
        "offset": 0,
        "slot": "2",
        "type": "t_mapping(t_address,t_uint256)"
      },
      {
        "astId": 85,
        "contract": "contracts/Counter.sol:Counter",
        "label": "myToken",
        "offset": 0,
        "slot": "3",
        "type": "t_contract(IMyToken)61"
      },
      {
        "astId": 88,
        "contract": "contracts/Counter.sol:Counter",
        "label": "s_priceFeed",
        "offset": 0,
        "slot": "4",
        "type": "t_contract(AggregatorV3Interface)45"
      }
    ],
    "types": {
      "t_address": {
        "encoding": "inplace",
        "label": "address",
        "numberOfBytes": "20"
      },
      "t_array(t_address)dyn_storage": {
        "base": "t_address",
        "encoding": "dynamic_array",
        "label": "address[]",
        "numberOfBytes": "32"
      },
      "t_contract(AggregatorV3Interface)45": {
        "encoding": "inplace",
        "label": "contract AggregatorV3Interface",
        "numberOfBytes": "20"
      },
      "t_contract(IMyToken)61": {
        "encoding": "inplace",
        "label": "contract IMyToken",
        "numberOfBytes": "20"
      },
      "t_mapping(t_address,t_uint256)": {
        "encoding": "mapping",
        "key": "t_address",
        "label": "mapping(address => uint256)",
        "numberOfBytes": "32",
        "value": "t_uint256"
      },
      "t_uint256": {
        "encoding": "inplace",
        "label": "uint256",
        "numberOfBytes": "32"
      }
    }
  }
}